:100000001124B59AFCE303D03197E9F7F9CF8A952B
:04001000F1F7089567
:101F0000909A899AAA27BB27C4E63196809B04C081
:101F1000E1F7CA95D1F76FC01196809BFDCFB695BA
:101F2000A795B695A795B695A695AB1FAA9599F3D3
:101F3000C9E0DD2712E01A83A88328E150E118E008
:101F40001983B881B3951197C895E9F741E13FD05E
:101F500029835B8347D0092FA4E13FD0053521F4C5
:101F600033D0FC01EE0FFF1F063511F0013409F4E8
:101F7000BB830537E1F5AEE130D0A3E92ED0A7E071
:101F80002CD0043679F41CD09634C9F41DD00C0141
:101F900041E01DD032963250C9F7329743E017D056
:101FA00045E015D0043759F40BD0EEBBFFBBA5912B
:101FB000953411F4E09AADB310D03A95B1F7BFCF94
:101FC00011D002D0382F08950DD0892F0BC017B72C
:101FD00010FDFDCF47BFE89508951A8115FFFDCF8D
:101FE000AB8308951A8117FFFDCF9B8108950135BA
:0C1FF00041F65B83D9839098899802C069
:00000001FF
