:100000001D9AFCE303D03197E9F7FACF8A95F1F70F
:02001000089551
:103F000014B711FF6AC0F126E9F3F12E2D9AC0EC27
:103F1000DD2712E0188310E11C8318E1198358D0C3
:103F2000082FA4E150D0053531F452D0E82F50D0FD
:103F3000F82FEE0FFF1F063511F4AA2744D00134E5
:103F400011F4A3E040D0053731F4AEE13CD0A4E950
:103F50003AD0ABE038D0013519F4A0E134D03DC0FF
:103F6000043689F425D08634D9F432D0082E30D0E6
:103F7000182E41E022D032962250B9F7329743E012
:103F80001CD045E01AD0043759F412D0A5918534DD
:103F900021F4E1BDF2BDF89AA0B515D02A95B1F78C
:103FA00017D08032E9F741E108D0A0E10CD0B7CFBB
:103FB0000FD00ED0282F0CD0089517B710FDFDCFCD
:103FC00047BFE8950895188115FFFDCFAE8308958A
:103FD000188117FFFDCF8E810895FF24F9822D9857
:00000001FF
