:1000000011241D9AFCE303D03197E9F7F9CF8A95C3
:04001000F1F7089567
:107E00002D9A24B621FE42C0AA27BB27C4E631968C
:107E1000489B04C0E1F7CA95D1F738C01196489B3A
:107E2000FDCFB695A795B695A795A695AA95C0EC52
:107E3000DD2712E01883AC831196F1F718E119835E
:107E400060D064D09033E9F743C060D0092FA4E13B
:107E500058D0053521F44CD0FC01EE0FFF1F06353C
:107E600011F0013411F4AA274CD0053731F4AEE1FA
:107E700048D0A5E946D0AFE044D0023411F424E163
:107E80002FD0013529F4A0E13CD0D9832D98B8C07A
:107E9000043681F429D0382F9634D1F429D00C013E
:107EA00041E029D032963250C9F7329743E023D0CF
:107EB00045E021D0043761F417D0382FE1BDF2BD81
:107EC000A591953411F4F89AA0B51BD03A95B1F765
:107ED0001DD09032E9F741E10ED0A0E112D0B5CF2C
:107EE00015D02A95E9F7089511D002D0382F0895BA
:107EF0000DD0892F0BC017B710FDFDCF47BFE895F8
:107F00000895188115FFFDCFAE830895188117FFDE
:067F1000FDCF9E810895E3
:00000001FF
