:100000001D9AFCE303D03197E9F7FACF8150F1F75D
:02001000089551
:103F000014B711FF66C0F126E9F3F12E2D9AC0EC2B
:103F1000DD2712E0188310E11C8318E1198354D0C7
:103F2000082FA4E14CD0053541F44ED0E82F4CD0F9
:103F3000F82FEE0FFF1F11E13CD0063511F4AA2730
:103F40003ED0013411F4A3E03AD0053731F4AEE1AC
:103F500036D0A4E934D0ABE032D0013519F4A0E179
:103F60002ED037C0043689F41ED0B9F46F012CD09E
:103F7000082E2AD0182E11E01CD032962250B9F704
:103F8000F60113E016D015E014D0043731F40BD04D
:103F900021F4A59114D02A95E1F716D08032E9F7E3
:103FA000A0E10DD0BCCF10D00FD0282F0DD086347B
:103FB000089547B740FDFDCF17BFE89508951881D4
:103FC00015FFFDCFAE830895188117FFFDCF8E81B9
:083FD0000895FF24F9822D98E9
:00000001FF
