:1000000011241D9AFCE303D03197E9F7F9CF8A95C3
:04001000F1F7089567
:103F0000112011F414B611FE38C0C0ECDD27519A0F
:103F1000AA27BB274899FECF1196489BFDCFB6959F
:103F2000A795B695A795A695AA9512E01883AC8398
:103F300018E119835BD0082FA4E153D0053531F483
:103F400055D0E82F53D0F82FEE0FFF1F063511F094
:103F5000013411F4AA2745D0053731F4AEE141D040
:103F6000A4E93FD0ABE03DD0013549F4A0E139D020
:103F70001196F1F7D883D983DC83519841C0043678
:103F800089F425D08634D9F431D0082E2FD0182EBC
:103F900041E021D032962250B9F7329743E01BD04E
:103FA00045E019D0043759F412D0E1BDF2BDA59116
:103FB000853411F4F89AA0B514D02A95B1F716D02B
:103FC0008032E9F741E107D0A0E10BD0B3CF0ED0AA
:103FD0000DD0282F0BC017B710FDFDCF47BFE895B8
:103FE0000895188115FFFDCFAE830895188117FF3E
:063FF000FDCF8E81089553
:00000001FF
